{
  "contractName": "PublicKeyRegistry",
  "abi": [
    {
      "constant": true,
      "inputs": [
        {
          "name": "",
          "type": "address"
        }
      ],
      "name": "publicKeys",
      "outputs": [
        {
          "name": "",
          "type": "bytes"
        }
      ],
      "payable": false,
      "stateMutability": "view",
      "type": "function"
    },
    {
      "anonymous": false,
      "inputs": [
        {
          "indexed": false,
          "name": "addr",
          "type": "address"
        },
        {
          "indexed": false,
          "name": "pubKey",
          "type": "bytes"
        }
      ],
      "name": "PublicKeyRegistered",
      "type": "event"
    },
    {
      "constant": false,
      "inputs": [
        {
          "name": "_addr",
          "type": "address"
        },
        {
          "name": "_pubKey",
          "type": "bytes"
        }
      ],
      "name": "registerPubKey",
      "outputs": [],
      "payable": false,
      "stateMutability": "nonpayable",
      "type": "function"
    }
  ],
  "bytecode": "0x608060405234801561001057600080fd5b506105f1806100206000396000f30060806040526004361061004c576000357c0100000000000000000000000000000000000000000000000000000000900463ffffffff168063a3d6f9a914610051578063d87adaa01461010d575b600080fd5b34801561005d57600080fd5b50610092600480360381019080803573ffffffffffffffffffffffffffffffffffffffff169060200190929190505050610168565b6040518080602001828103825283818151815260200191508051906020019080838360005b838110156100d25780820151818401526020810190506100b7565b50505050905090810190601f1680156100ff5780820380516001836020036101000a031916815260200191505b509250505060405180910390f35b34801561011957600080fd5b50610166600480360381019080803573ffffffffffffffffffffffffffffffffffffffff169060200190929190803590602001908201803590602001919091929391929390505050610218565b005b60006020528060005260406000206000915090508054600181600116156101000203166002900480601f0160208091040260200160405190810160405280929190818152602001828054600181600116156101000203166002900480156102105780601f106101e557610100808354040283529160200191610210565b820191906000526020600020905b8154815290600101906020018083116101f357829003601f168201915b505050505081565b61025382828080601f0160208091040260200160405190810160405280939291908181526020018383808284378201915050505050506104a2565b15156102c7576040517f08c379a000000000000000000000000000000000000000000000000000000000815260040180806020018281038252601a8152602001807f546865207075626c6963206b65792077617320696e76616c696400000000000081525060200191505060405180910390fd5b8273ffffffffffffffffffffffffffffffffffffffff1661031983838080601f0160208091040260200160405190810160405280939291908181526020018383808284378201915050505050506104b0565b73ffffffffffffffffffffffffffffffffffffffff161415156103ca576040517f08c379a00000000000000000000000000000000000000000000000000000000081526004018080602001828103825260338152602001807f546865207075626c6963206b657920646f6573206e6f7420636f72726573706f81526020017f6e6420776974682074686520616464726573730000000000000000000000000081525060400191505060405180910390fd5b81816000808673ffffffffffffffffffffffffffffffffffffffff1673ffffffffffffffffffffffffffffffffffffffff1681526020019081526020016000209190610417929190610520565b507fb3ec32f104accdf61583b5b94e7b80414c5dc5845ffc42e00f5f19775a358a0a838383604051808473ffffffffffffffffffffffffffffffffffffffff1673ffffffffffffffffffffffffffffffffffffffff168152602001806020018281038252848482818152602001925080828437820191505094505050505060405180910390a1505050565b600060408251149050919050565b6000816040518082805190602001908083835b6020831015156104e857805182526020820191506020810190506020830392506104c3565b6001836020036101000a0380198251168184511680821785525050505050509050019150506040518091039020600190049050919050565b828054600181600116156101000203166002900490600052602060002090601f016020900481019282601f1061056157803560ff191683800117855561058f565b8280016001018555821561058f579182015b8281111561058e578235825591602001919060010190610573565b5b50905061059c91906105a0565b5090565b6105c291905b808211156105be5760008160009055506001016105a6565b5090565b905600a165627a7a72305820ae0d402e0cc098337ec7dc66ceb1c742fc968e1b08772142b99762d669e249920029",
  "source": "pragma solidity 0.4.24;\r\n\r\n// Author: Henk Dieter Oordt\r\n/*\r\n    This contract is used to register public keys that correspond to Ethereum addresses.\r\n    These public keys can be usedfor encryption and the like.\r\n*/\r\ncontract PublicKeyRegistry {\r\n    mapping(address => bytes) public publicKeys;\r\n    \r\n    function pubKeyToAddress(bytes _pubKey) internal pure returns (address) {\r\n        return address(keccak256(_pubKey));\r\n    }\r\n    \r\n    function isValidPubKey(bytes _pubKey) internal pure returns (bool) {\r\n        return _pubKey.length == 64;\r\n    }\r\n    \r\n    function registerPubKey(address _addr, bytes _pubKey) external {\r\n        require(\r\n            isValidPubKey(_pubKey),\r\n            \"The public key was invalid\"\r\n        );\r\n        require(\r\n            pubKeyToAddress(_pubKey) == _addr, \r\n            \"The public key does not correspond with the address\"\r\n        );\r\n        \r\n        publicKeys[_addr] = _pubKey;\r\n        \r\n        emit PublicKeyRegistered(_addr, _pubKey);\r\n    }\r\n    \r\n    event PublicKeyRegistered(address addr, bytes pubKey);\r\n}",
  "sourcePath": "D:\\Baksteen\\PubKeyReg\\contracts\\PubKeyReg.sol",
  "compiler": {
    "name": "solc",
    "version": "0.4.24+commit.e67f0147.Emscripten.clang"
  },
  "schemaVersion": "2.0.0",
  "updatedAt": "2018-06-25T13:24:24.327Z"
}